{
    "contractName": "GetSetValue",
    "abi": [
        {
            "inputs": [],
            "name": "getValue",
            "outputs": [
                {
                    "internalType": "string",
                    "name": "",
                    "type": "string"
                }
            ],
            "stateMutability": "view",
            "type": "function"
        },
        {
            "inputs": [
                {
                    "internalType": "string",
                    "name": "_value",
                    "type": "string"
                }
            ],
            "name": "setValue",
            "outputs": [],
            "stateMutability": "nonpayable",
            "type": "function"
        }
    ],
    "bytecode": "608060405234801561001057600080fd5b506102dc806100206000396000f3fe608060405234801561001057600080fd5b50600436106100365760003560e01c8063209652551461003b57806393a09352146100b8575b600080fd5b610043610160565b6040805160208082528351818301528351919283929083019185019080838360005b8381101561007d578181015183820152602001610065565b50505050905090810190601f1680156100aa5780820380516001836020036101000a031916815260200191505b509250505060405180910390f35b61015e600480360360208110156100ce57600080fd5b8101906020810181356401000000008111156100e957600080fd5b8201836020820111156100fb57600080fd5b8035906020019184600183028401116401000000008311171561011d57600080fd5b91908080601f0160208091040260200160405190810160405280939291908181526020018383808284376000920191909152509295506101f7945050505050565b005b60008054604080516020601f60026000196101006001881615020190951694909404938401819004810282018101909252828152606093909290918301828280156101ec5780601f106101c1576101008083540402835291602001916101ec565b820191906000526020600020905b8154815290600101906020018083116101cf57829003601f168201915b505050505090505b90565b805161020a90600090602084019061020e565b5050565b828054600181600116156101000203166002900490600052602060002090601f016020900481019282601f1061024f57805160ff191683800117855561027c565b8280016001018555821561027c579182015b8281111561027c578251825591602001919060010190610261565b5061028892915061028c565b5090565b6101f491905b80821115610288576000815560010161029256fea264697066735822122089c7efb60f12a367ea572969b1bf8c491008c6153e8b1fd4f3b4398116cbfc3c64736f6c63430006080033",
    "sourcePath": "/Users/nik/Developer/hsrm/blockchain-lab/src/lab4/contract.sol",
    "compiler": {
        "name": "solc",
        "version": "0.6.8+commit.0bbfe453"
    },
    "functionHashes": {
        "getValue()": "20965255",
        "setValue(string)": "93a09352"
    },
    "gasEstimates": {
        "creation": {
            "codeDepositCost": "146400",
            "executionCost": "190",
            "totalCost": "146590"
        },
        "external": {
            "getValue()": "infinite",
            "setValue(string)": "infinite"
        }
    }
}